{
  "contractName": "DigitalBankingFarm",
  "abi": [
    {
      "inputs": [
        {
          "internalType": "contract RgtToken",
          "name": "_rgtToken",
          "type": "address"
        },
        {
          "internalType": "contract NativeToken",
          "name": "_nativeToken",
          "type": "address"
        }
      ],
      "payable": false,
      "stateMutability": "nonpayable",
      "type": "constructor"
    },
    {
      "anonymous": false,
      "inputs": [
        {
          "indexed": false,
          "internalType": "address",
          "name": "owner",
          "type": "address"
        },
        {
          "indexed": false,
          "internalType": "uint256",
          "name": "reward",
          "type": "uint256"
        },
        {
          "indexed": false,
          "internalType": "string",
          "name": "message",
          "type": "string"
        }
      ],
      "name": "ClaimRewardEvent",
      "type": "event"
    },
    {
      "anonymous": false,
      "inputs": [
        {
          "indexed": false,
          "internalType": "address",
          "name": "owner",
          "type": "address"
        },
        {
          "indexed": false,
          "internalType": "uint256",
          "name": "amount",
          "type": "uint256"
        },
        {
          "indexed": false,
          "internalType": "string",
          "name": "message",
          "type": "string"
        }
      ],
      "name": "StakingEvent",
      "type": "event"
    },
    {
      "constant": true,
      "inputs": [
        {
          "internalType": "uint256",
          "name": "",
          "type": "uint256"
        }
      ],
      "name": "assets",
      "outputs": [
        {
          "internalType": "bytes32",
          "name": "identity",
          "type": "bytes32"
        },
        {
          "internalType": "address",
          "name": "owner",
          "type": "address"
        },
        {
          "internalType": "string",
          "name": "name",
          "type": "string"
        },
        {
          "internalType": "uint256",
          "name": "value",
          "type": "uint256"
        }
      ],
      "payable": false,
      "stateMutability": "view",
      "type": "function"
    },
    {
      "constant": true,
      "inputs": [
        {
          "internalType": "address",
          "name": "",
          "type": "address"
        }
      ],
      "name": "hasStaked",
      "outputs": [
        {
          "internalType": "bool",
          "name": "",
          "type": "bool"
        }
      ],
      "payable": false,
      "stateMutability": "view",
      "type": "function"
    },
    {
      "constant": true,
      "inputs": [
        {
          "internalType": "address",
          "name": "",
          "type": "address"
        }
      ],
      "name": "isStaking",
      "outputs": [
        {
          "internalType": "bool",
          "name": "",
          "type": "bool"
        }
      ],
      "payable": false,
      "stateMutability": "view",
      "type": "function"
    },
    {
      "constant": true,
      "inputs": [],
      "name": "name",
      "outputs": [
        {
          "internalType": "string",
          "name": "",
          "type": "string"
        }
      ],
      "payable": false,
      "stateMutability": "view",
      "type": "function"
    },
    {
      "constant": true,
      "inputs": [],
      "name": "nativeToken",
      "outputs": [
        {
          "internalType": "contract NativeToken",
          "name": "",
          "type": "address"
        }
      ],
      "payable": false,
      "stateMutability": "view",
      "type": "function"
    },
    {
      "constant": true,
      "inputs": [],
      "name": "owner",
      "outputs": [
        {
          "internalType": "address",
          "name": "",
          "type": "address"
        }
      ],
      "payable": false,
      "stateMutability": "view",
      "type": "function"
    },
    {
      "constant": true,
      "inputs": [
        {
          "internalType": "address",
          "name": "",
          "type": "address"
        }
      ],
      "name": "ownerRewards",
      "outputs": [
        {
          "internalType": "uint256",
          "name": "",
          "type": "uint256"
        }
      ],
      "payable": false,
      "stateMutability": "view",
      "type": "function"
    },
    {
      "constant": true,
      "inputs": [],
      "name": "rewardClaimingEndBlock",
      "outputs": [
        {
          "internalType": "uint256",
          "name": "",
          "type": "uint256"
        }
      ],
      "payable": false,
      "stateMutability": "view",
      "type": "function"
    },
    {
      "constant": true,
      "inputs": [],
      "name": "rewardClaimingStartBlock",
      "outputs": [
        {
          "internalType": "uint256",
          "name": "",
          "type": "uint256"
        }
      ],
      "payable": false,
      "stateMutability": "view",
      "type": "function"
    },
    {
      "constant": true,
      "inputs": [],
      "name": "rgtToken",
      "outputs": [
        {
          "internalType": "contract RgtToken",
          "name": "",
          "type": "address"
        }
      ],
      "payable": false,
      "stateMutability": "view",
      "type": "function"
    },
    {
      "constant": true,
      "inputs": [
        {
          "internalType": "uint256",
          "name": "",
          "type": "uint256"
        }
      ],
      "name": "stakerAddresses",
      "outputs": [
        {
          "internalType": "address",
          "name": "",
          "type": "address"
        }
      ],
      "payable": false,
      "stateMutability": "view",
      "type": "function"
    },
    {
      "constant": true,
      "inputs": [
        {
          "internalType": "address",
          "name": "",
          "type": "address"
        }
      ],
      "name": "stakersAccount",
      "outputs": [
        {
          "internalType": "uint256",
          "name": "balance",
          "type": "uint256"
        },
        {
          "internalType": "uint256",
          "name": "reward",
          "type": "uint256"
        },
        {
          "internalType": "bool",
          "name": "exists",
          "type": "bool"
        }
      ],
      "payable": false,
      "stateMutability": "view",
      "type": "function"
    },
    {
      "constant": true,
      "inputs": [],
      "name": "state",
      "outputs": [
        {
          "internalType": "enum DigitalBankingFarm.State",
          "name": "",
          "type": "uint8"
        }
      ],
      "payable": false,
      "stateMutability": "view",
      "type": "function"
    },
    {
      "constant": false,
      "inputs": [
        {
          "internalType": "uint256",
          "name": "_amount",
          "type": "uint256"
        }
      ],
      "name": "depositToken",
      "outputs": [],
      "payable": false,
      "stateMutability": "nonpayable",
      "type": "function"
    },
    {
      "constant": false,
      "inputs": [],
      "name": "claimReward",
      "outputs": [],
      "payable": false,
      "stateMutability": "nonpayable",
      "type": "function"
    },
    {
      "constant": false,
      "inputs": [],
      "name": "closeContact",
      "outputs": [],
      "payable": false,
      "stateMutability": "nonpayable",
      "type": "function"
    }
  ],
  "bytecode": "0x60806040526040518060400160405280601981526020017f44617070204469676974616c2042616e6b696e67204661726d000000000000008152506000908051906020019062000051929190620001a8565b503480156200005f57600080fd5b5060405162001b0238038062001b02833981810160405260408110156200008557600080fd5b81019080805190602001909291908051906020019092919050505081600160006101000a81548173ffffffffffffffffffffffffffffffffffffffff021916908373ffffffffffffffffffffffffffffffffffffffff16021790555080600260006101000a81548173ffffffffffffffffffffffffffffffffffffffff021916908373ffffffffffffffffffffffffffffffffffffffff1602179055506000600b60006101000a81548160ff021916908360018111156200014257fe5b021790555033600b60016101000a81548173ffffffffffffffffffffffffffffffffffffffff021916908373ffffffffffffffffffffffffffffffffffffffff160217905550619d804301600981905550612d0060095401600a81905550505062000257565b828054600181600116156101000203166002900490600052602060002090601f016020900481019282601f10620001eb57805160ff19168380011785556200021c565b828001600101855582156200021c579182015b828111156200021b578251825591602001919060010190620001fe565b5b5090506200022b91906200022f565b5090565b6200025491905b808211156200025057600081600090555060010162000236565b5090565b90565b61189b80620002676000396000f3fe608060405234801561001057600080fd5b50600436106101005760003560e01c80639836673611610097578063cf35bdd011610066578063cf35bdd014610426578063e1758bd81461050e578063f028c2ae14610558578063f0693d601461057657610100565b8063983667361461033c578063b88a802f14610394578063c19d93fb1461039e578063c93c8f34146103ca57610100565b80636f49712b116100d35780636f49712b1461024257806370200ef11461029e5780638860a904146102e85780638da5cb5b146102f257610100565b806306fdde0314610105578063180edcd914610188578063459598a2146101a65780636215be7714610214575b600080fd5b61010d6105e0565b6040518080602001828103825283818151815260200191508051906020019080838360005b8381101561014d578082015181840152602081019050610132565b50505050905090810190601f16801561017a5780820380516001836020036101000a031916815260200191505b509250505060405180910390f35b61019061067e565b6040518082815260200191505060405180910390f35b6101d2600480360360208110156101bc57600080fd5b8101908080359060200190929190505050610684565b604051808273ffffffffffffffffffffffffffffffffffffffff1673ffffffffffffffffffffffffffffffffffffffff16815260200191505060405180910390f35b6102406004803603602081101561022a57600080fd5b81019080803590602001909291905050506106c0565b005b6102846004803603602081101561025857600080fd5b81019080803573ffffffffffffffffffffffffffffffffffffffff169060200190929190505050610d5d565b604051808215151515815260200191505060405180910390f35b6102a6610d7d565b604051808273ffffffffffffffffffffffffffffffffffffffff1673ffffffffffffffffffffffffffffffffffffffff16815260200191505060405180910390f35b6102f0610da3565b005b6102fa610e77565b604051808273ffffffffffffffffffffffffffffffffffffffff1673ffffffffffffffffffffffffffffffffffffffff16815260200191505060405180910390f35b61037e6004803603602081101561035257600080fd5b81019080803573ffffffffffffffffffffffffffffffffffffffff169060200190929190505050610e9d565b6040518082815260200191505060405180910390f35b61039c610eb5565b005b6103a661134f565b604051808260018111156103b657fe5b60ff16815260200191505060405180910390f35b61040c600480360360208110156103e057600080fd5b81019080803573ffffffffffffffffffffffffffffffffffffffff169060200190929190505050611362565b604051808215151515815260200191505060405180910390f35b6104526004803603602081101561043c57600080fd5b8101908080359060200190929190505050611382565b604051808581526020018473ffffffffffffffffffffffffffffffffffffffff1673ffffffffffffffffffffffffffffffffffffffff16815260200180602001838152602001828103825284818151815260200191508051906020019080838360005b838110156104d05780820151818401526020810190506104b5565b50505050905090810190601f1680156104fd5780820380516001836020036101000a031916815260200191505b509550505050505060405180910390f35b610516611477565b604051808273ffffffffffffffffffffffffffffffffffffffff1673ffffffffffffffffffffffffffffffffffffffff16815260200191505060405180910390f35b61056061149d565b6040518082815260200191505060405180910390f35b6105b86004803603602081101561058c57600080fd5b81019080803573ffffffffffffffffffffffffffffffffffffffff1690602001909291905050506114a3565b6040518084815260200183815260200182151515158152602001935050505060405180910390f35b60008054600181600116156101000203166002900480601f0160208091040260200160405190810160405280929190818152602001828054600181600116156101000203166002900480156106765780601f1061064b57610100808354040283529160200191610676565b820191906000526020600020905b81548152906001019060200180831161065957829003601f168201915b505050505081565b600a5481565b6005818154811061069157fe5b906000526020600020016000915054906101000a900473ffffffffffffffffffffffffffffffffffffffff1681565b600060018111156106cd57fe5b600b60009054906101000a900460ff1660018111156106e857fe5b1461073e576040517f08c379a000000000000000000000000000000000000000000000000000000000815260040180806020018281038252604c8152602001806117e4604c913960600191505060405180910390fd5b6000600a828161074a57fe5b06146107a1576040517f08c379a00000000000000000000000000000000000000000000000000000000081526004018080602001828103825260368152602001806116c06036913960400191505060405180910390fd5b600160009054906101000a900473ffffffffffffffffffffffffffffffffffffffff1673ffffffffffffffffffffffffffffffffffffffff166323b872dd3330846040518463ffffffff1660e01b8152600401808473ffffffffffffffffffffffffffffffffffffffff1673ffffffffffffffffffffffffffffffffffffffff1681526020018373ffffffffffffffffffffffffffffffffffffffff1673ffffffffffffffffffffffffffffffffffffffff1681526020018281526020019350505050602060405180830381600087803b15801561087e57600080fd5b505af1158015610892573d6000803e3d6000fd5b505050506040513d60208110156108a857600080fd5b8101908080519060200190929190505050506108c26115b6565b6040518060800160405280424360405160200180838152602001828152602001925050506040516020818303038152906040528051906020012081526020013373ffffffffffffffffffffffffffffffffffffffff1681526020016040518060400160405280600f81526020017f52475420544f4b454e2041535345540000000000000000000000000000000000815250815260200167016345785d8a00008152509050600360003373ffffffffffffffffffffffffffffffffffffffff1673ffffffffffffffffffffffffffffffffffffffff16815260200190815260200160002060020160009054906101000a900460ff1615610a54576109c36115f7565b600360003373ffffffffffffffffffffffffffffffffffffffff1673ffffffffffffffffffffffffffffffffffffffff16815260200190815260200160002060405180606001604052908160008201548152602001600182015481526020016002820160009054906101000a900460ff16151515158152505090508281600001818151019150818152505050610b5c565b610a5c6115f7565b60405180606001604052808481526020016000815260200160011515815250905080600360003373ffffffffffffffffffffffffffffffffffffffff1673ffffffffffffffffffffffffffffffffffffffff168152602001908152602001600020600082015181600001556020820151816001015560408201518160020160006101000a81548160ff02191690831515021790555090505060053390806001815401808255809150509060018203906000526020600020016000909192909190916101000a81548173ffffffffffffffffffffffffffffffffffffffff021916908373ffffffffffffffffffffffffffffffffffffffff16021790555050505b600781908060018154018082558091505090600182039060005260206000209060040201600090919290919091506000820151816000015560208201518160010160006101000a81548173ffffffffffffffffffffffffffffffffffffffff021916908373ffffffffffffffffffffffffffffffffffffffff1602179055506040820151816002019080519060200190610bf792919061161a565b50606082015181600301555050506001600660003373ffffffffffffffffffffffffffffffffffffffff1673ffffffffffffffffffffffffffffffffffffffff16815260200190815260200160002060006101000a81548160ff0219169083151502179055506001600460003373ffffffffffffffffffffffffffffffffffffffff1673ffffffffffffffffffffffffffffffffffffffff16815260200190815260200160002060006101000a81548160ff0219169083151502179055507f6d62758ab1d67fbaf544c6ad8e7dd0f50be13076eb42bf45f76d57122e1597023383604051808373ffffffffffffffffffffffffffffffffffffffff1673ffffffffffffffffffffffffffffffffffffffff16815260200182815260200180602001828103825260188152602001807f4f7065726174696f6e20776173207375636365737366756c0000000000000000815250602001935050505060405180910390a15050565b60066020528060005260406000206000915054906101000a900460ff1681565b600160009054906101000a900473ffffffffffffffffffffffffffffffffffffffff1681565b600b60019054906101000a900473ffffffffffffffffffffffffffffffffffffffff1673ffffffffffffffffffffffffffffffffffffffff163373ffffffffffffffffffffffffffffffffffffffff1614610e49576040517f08c379a00000000000000000000000000000000000000000000000000000000081526004018080602001828103825260378152602001806118306037913960400191505060405180910390fd5b6001600b60006101000a81548160ff02191690836001811115610e6857fe5b02179055506000600a81905550565b600b60019054906101000a900473ffffffffffffffffffffffffffffffffffffffff1681565b60086020528060005260406000206000915090505481565b60006001811115610ec257fe5b600b60009054906101000a900460ff166001811115610edd57fe5b14610f33576040517f08c379a000000000000000000000000000000000000000000000000000000000815260040180806020018281038252604c8152602001806117e4604c913960600191505060405180910390fd5b60095443118015610f465750600a544311155b610f9b576040517f08c379a00000000000000000000000000000000000000000000000000000000081526004018080602001828103825260558152602001806116f66055913960600191505060405180910390fd5b6000600860003373ffffffffffffffffffffffffffffffffffffffff1673ffffffffffffffffffffffffffffffffffffffff168152602001908152602001600020541115611034576040517f08c379a00000000000000000000000000000000000000000000000000000000081526004018080602001828103825260368152602001806117ae6036913960400191505060405180910390fd5b61103c6115f7565b600360003373ffffffffffffffffffffffffffffffffffffffff1673ffffffffffffffffffffffffffffffffffffffff16815260200190815260200160002060405180606001604052908160008201548152602001600182015481526020016002820160009054906101000a900460ff161515151581525050905060006110c16114da565b90508082602001818152505060008111611126576040517f08c379a000000000000000000000000000000000000000000000000000000000815260040180806020018281038252606381526020018061174b6063913960800191505060405180910390fd5b600260009054906101000a900473ffffffffffffffffffffffffffffffffffffffff1673ffffffffffffffffffffffffffffffffffffffff1663a9059cbb33836040518363ffffffff1660e01b8152600401808373ffffffffffffffffffffffffffffffffffffffff1673ffffffffffffffffffffffffffffffffffffffff16815260200182815260200192505050602060405180830381600087803b1580156111cf57600080fd5b505af11580156111e3573d6000803e3d6000fd5b505050506040513d60208110156111f957600080fd5b8101908080519060200190929190505050506000600660003373ffffffffffffffffffffffffffffffffffffffff1673ffffffffffffffffffffffffffffffffffffffff16815260200190815260200160002060006101000a81548160ff02191690831515021790555080600860003373ffffffffffffffffffffffffffffffffffffffff1673ffffffffffffffffffffffffffffffffffffffff168152602001908152602001600020819055507fbcd3d5e3723f1a8a2ad17279450e559d439b353499286ee4064f74d5589a96f93382604051808373ffffffffffffffffffffffffffffffffffffffff1673ffffffffffffffffffffffffffffffffffffffff16815260200182815260200180602001828103825260188152602001807f4f7065726174696f6e20776173207375636365737366756c0000000000000000815250602001935050505060405180910390a15050565b600b60009054906101000a900460ff1681565b60046020528060005260406000206000915054906101000a900460ff1681565b6007818154811061138f57fe5b90600052602060002090600402016000915090508060000154908060010160009054906101000a900473ffffffffffffffffffffffffffffffffffffffff1690806002018054600181600116156101000203166002900480601f0160208091040260200160405190810160405280929190818152602001828054600181600116156101000203166002900480156114675780601f1061143c57610100808354040283529160200191611467565b820191906000526020600020905b81548152906001019060200180831161144a57829003601f168201915b5050505050908060030154905084565b600260009054906101000a900473ffffffffffffffffffffffffffffffffffffffff1681565b60095481565b60036020528060005260406000206000915090508060000154908060010154908060020160009054906101000a900460ff16905083565b6000806000905060008090505b6007805490508110156115a1573373ffffffffffffffffffffffffffffffffffffffff166007828154811061151857fe5b906000526020600020906004020160010160009054906101000a900473ffffffffffffffffffffffffffffffffffffffff1673ffffffffffffffffffffffffffffffffffffffff16141561159457600a6007828154811061157557fe5b9060005260206000209060040201600301548161158e57fe5b04820191505b80806001019150506114e7565b50600767016345785d8a000082020291505090565b604051806080016040528060008019168152602001600073ffffffffffffffffffffffffffffffffffffffff16815260200160608152602001600081525090565b604051806060016040528060008152602001600081526020016000151581525090565b828054600181600116156101000203166002900490600052602060002090601f016020900481019282601f1061165b57805160ff1916838001178555611689565b82800160010185558215611689579182015b8281111561168857825182559160200191906001019061166d565b5b509050611696919061169a565b5090565b6116bc91905b808211156116b85760008160009055506001016116a0565b5090565b9056fe416d6f756e7420737570706c696564206d7573742062652061206d756c7469706c65206f662031302065672031302c2032302c203330536f727279207468652062616e6b696e67206661726d206973207374696c6c2072756e6e696e672c20616e6420796f752077696c6c2067657420796f757220726577617264207768656e20697320636c6f7365642e526577617264206d7573742062652067726561746572207468616e207a65726f206265666f72652069742063616e20626520636c61696d65642c20706c73207374616b652052475420746f6b656e20616e6420636865636b206261636b20616761696e49742061707065617273207468617420796f75206861766520616c726561647920636c61696d696e6720796f75722072657761726473497420617070656172732074686174206f75722062616e6b696e67207969656c6420726577617264732068617320636c6f7365642e20706c6561736520636865636b206e6578742074696d654f6f707321206974206170706561727320796f7520617265206e6f7420746865206f776e6572206f66207468697320636f6e7472616374a265627a7a7231582092b477413efb69f5d32c445d9fb244d25a434afc869950f2d97ed42769a57c6b64736f6c63430005100032",
  "source": "// SPDX-License-Identifier: GPL-3.0\n\npragma solidity ^0.5.0;\n\n//since we will be using our RGT and Native token in this our banking farm smart contract\n//therefore, we need to import them here\n\nimport \"./RgtToken.sol\";\nimport \"./NativeToken.sol\";\n\n\n// This is like tokenFarm that gives reward for each token staked(deposited) by investor\n// the idea is, an investor will stake a multiple of 10 RGT token.\n// And for each staken, 0.1 RGT token is reward every 24 hours.\ncontract DigitalBankingFarm {\n\n    //the name of the contract. it is best practice to give smart contract a name\n    string public name = \"Dapp Digital Banking Farm\";\n    //create variable of type RGT token\n    RgtToken public rgtToken;\n    //create variable of type Native token\n    NativeToken public nativeToken;\n    //create the variable that will hold the mapping of address to account\n    mapping(address => Account) public stakersAccount;\n    //Since it is certain that the reward for each is staking is 0.1, therefore it will be okay if declared constant\n    uint constant rewardAmount = 100000000000000000; // 0.1 RGT TOKEN  0.1 for 1d === then for 7d == 7X\n    uint constant numberOfDays = 7;\n    //Lets manage the state of staking/depositing in our contract, in that case we will know if the user has staked.\n    mapping(address => bool) public hasStaked;\n    //Lets keep track of all the addresses that ever staked in our contract.\n    address[] public stakerAddresses;\n    //lets add current staking status;\n    mapping(address => bool) public isStaking;\n    //keep track all track assets we ever created in this account\n    Asset[] public assets;\n    //keep track of owner that has collecting their rewards\n    mapping(address => uint) public ownerRewards;\n    //this will hold reward start time\n    uint public rewardClaimingStartBlock;\n    //this will hold reward end time\n    uint public rewardClaimingEndBlock;\n    //keep track of the smart contract state\n    State public state;\n    //owner of the smart contract\n    address public owner;\n\n\n    //EVENT\n    event StakingEvent(address owner, uint amount, string message);\n    event ClaimRewardEvent(address owner, uint reward, string message);\n\n    //create our constructor that run once whenever the smart contract is deployed to the network\n    //the constructor takes  the argument of the address that deployed the RGT and Native token to the network\n    constructor(RgtToken _rgtToken, NativeToken _nativeToken) public {\n        rgtToken = _rgtToken;\n        nativeToken = _nativeToken;\n        //update the state\n        state = State.RUNNING;\n        //set the owner\n        owner = msg.sender;\n        //send the start of the reward time\n        //we want our reward claiming to  run for  a week\n        //for every 15sec there is one block\n        //how many ethereum block will be generated in a week\n        //how many seconds in a week = 60 * 60 * 24 * 7 = 604,800sec\n        //604,800/15 = 40,320 blocks\n        rewardClaimingStartBlock = block.number + 40320;\n        //send end of the reward time\n        //run the claiming for two days;\n        //2day = 40,320/7 = 5,760 *2 = 11,520 blocks\n        rewardClaimingEndBlock = rewardClaimingStartBlock + 11520;\n    }\n\n    enum State {RUNNING, CLOSED}\n\n    //The object that hold the account of each stakers\n    struct Account {\n        //holding total balance of the amount the account has staked or deposited so far\n        uint balance;\n        //hold the balance of the reward so far base on the amount he has staked\n        uint reward;\n        //great to have this, in order to check its existence\n        bool exists;\n    }\n\n\n    //The asset object that will be created upon successfully deposited of multiple of 10 RGT token\n    struct Asset {\n        //an asset should have unique identity, in this case, a unique identifiers can assigned to this\n        bytes32 identity;\n        //of course an asset should have owner, in this case, we will use address of the owner\n        address owner;\n        //and asset will have a name, we will just called RGTAsset\n        string name;\n        //how much does this asset worth\n        uint value;\n    }\n\n\n    //1. Stake token: this is part where investor we deposit RGT token to our digital banking contract\n    //takes amount of RGT token as an argument and it has to be multiple of 10\n    function depositToken(uint _amount) public isRunning{\n\n        //before anything, lets check if the amount supplied is a multiple of 10 RGT token\n        require(_amount % 10 == 0, \"Amount supplied must be a multiple of 10 eg 10, 20, 30\");\n\n        // to stake RGT token to our contract, first we will transfer whatever the amount the sender is sending\n        // to this contract\n        // ofcourse in a real world scenerios, token sent to the app can be used for lending, fund raising, project building etc\n        // as reward for each multiple of 10 token RGT stoken, an asset will be generated.\n        // asset is something of value such as diamond, gold, but in this case asset === 0.1 RGT token\n        rgtToken.transferFrom(msg.sender, address(this), _amount);\n\n        //now the token has been successfully transfer to the contract, lets create an asset for this transactions\n        Asset memory asset = Asset({\n            //for instance we will hash the timestamp and block number to make identity of this asset unique\n            identity: keccak256(abi.encodePacked(block.timestamp, block.number)),\n            name: \"RGT TOKEN ASSET\",\n            owner: msg.sender,  //the sender is the owner of this asset\n            value: rewardAmount\n        });\n\n\n        //check if this sender has an account with us\n        if(stakersAccount[msg.sender].exists) {\n            //update the account of this sender\n            Account memory account = stakersAccount[msg.sender];\n            //Great! this sender has account with us, lets update its balance\n            //update the existing balance\n            account.balance += _amount;\n\n        }else {\n            //it means this is our first time account owner, lets add him up the list of our account owners\n            //open account for him\n            Account memory newAccount = Account({\n            balance: _amount,\n            reward: 0,\n            exists: true\n            });\n            //finally add him up to the list of existing stakers\n            stakersAccount[msg.sender] = newAccount;\n            //so since this is new account --- first timer stakers, lets also add him to the array of stakers\n            stakerAddresses.push(msg.sender);\n        }\n        //update the asset array;\n        assets.push(asset);\n        //update current staking status\n        isStaking[msg.sender] = true;\n        //update staking status\n        hasStaked[msg.sender] = true;\n\n        //if every things went well as it should, then emit staking event\n        emit StakingEvent(msg.sender, _amount, \"Operation was successful\");\n\n    }\n\n\n\n\n    //3. Claim your reward: the method that will be responsible for investor to claim the reward that he received\n    // so far base on the asset he/she has with us.\n    function claimReward() public isRunning {\n\n        //check if the claiming reward time has reached\n        require(block.number > rewardClaimingStartBlock && block.number <= rewardClaimingEndBlock, \"Sorry the banking farm is still running, and you will get your reward when is closed.\");\n\n        //check if this person has already claiming his rewards\n        require(ownerRewards[msg.sender] <= 0, \"It appears that you have already claiming your rewards\");\n\n        //fetch the account detail of the sender\n        Account memory account  = stakersAccount[msg.sender];\n\n        //get the total reward\n        uint reward = getTotalReward();\n\n        //for record purposes, update his account\n        account.reward = reward;\n\n        //check if the reward is greater than zero\n        require(reward > 0, \"Reward must be greater than zero before it can be claimed, pls stake RGT token and check back again\");\n\n        //transfer native token to this sender\n        nativeToken.transfer(msg.sender, reward);\n\n        //the account is not more staking\n        isStaking[msg.sender] = false;\n\n        //tracked this person, for he has collected his reward\n        ownerRewards[msg.sender] = reward;\n\n        //emit claimReward event\n        emit ClaimRewardEvent(msg.sender, reward, \"Operation was successful\");\n\n    }\n\n    function closeContact() public onlyOwner {\n        state = State.CLOSED;\n        //just to be sure\n        rewardClaimingEndBlock = 0;\n    }\n\n    //you must be the owner before you can be called\n    modifier onlyOwner() {\n        require(msg.sender == owner, \"Oops! it appears you are not the owner of this contract\");\n        _;\n    }\n\n    modifier isRunning() {\n        //check if the our yield banking is still running\n        require(state == State.RUNNING, \"It appears that our banking yield rewards has closed. please check next time\");\n        _;\n    }\n\n\n     function getTotalReward() private view returns(uint) {\n        //lets get the total rewards to this person : msg.sender\n\n         //hold the number of multiple of 10. becuase is possible that the owner has deposited 20 or 50 or 100 any point in time\n         uint count = 0;\n\n         //iterate all the assests\n         for(uint i = 0; i < assets.length; i++) {\n             //we are only interested in this sender\n             if(assets[i].owner == msg.sender) {\n                 //one asset === 10 RGT token\n                 count += assets[i].value/10;\n             }\n         }\n         //return totalAsset(base on multiple of 10 RGT token) * 0.1(the reward amount) * number of given days(7)\n         return count * rewardAmount * numberOfDays;\n     }\n\n\n\n\n\n\n\n}",
  "sourcePath": "/Users/jamesoladimeji/Desktop/digital-bankking-contract/src/contracts/DigitalBankingFarm.sol",
  "compiler": {
    "name": "solc",
    "version": "0.5.16+commit.9c3226ce.Emscripten.clang"
  },
  "schemaVersion": "3.2.3",
  "updatedAt": "2022-03-06T12:44:57.228Z",
  "networkType": "ethereum",
  "devdoc": {
    "methods": {}
  },
  "userdoc": {
    "methods": {}
  }
}