{
  "contractName": "DigitalBankingFarm",
  "abi": [
    {
      "inputs": [
        {
          "internalType": "contract RgtToken",
          "name": "_rgtToken",
          "type": "address"
        },
        {
          "internalType": "contract NativeToken",
          "name": "_nativeToken",
          "type": "address"
        }
      ],
      "payable": false,
      "stateMutability": "nonpayable",
      "type": "constructor"
    },
    {
      "anonymous": false,
      "inputs": [
        {
          "indexed": false,
          "internalType": "address",
          "name": "owner",
          "type": "address"
        },
        {
          "indexed": false,
          "internalType": "uint256",
          "name": "reward",
          "type": "uint256"
        },
        {
          "indexed": false,
          "internalType": "string",
          "name": "message",
          "type": "string"
        }
      ],
      "name": "ClaimRewardEvent",
      "type": "event"
    },
    {
      "anonymous": false,
      "inputs": [
        {
          "indexed": false,
          "internalType": "address",
          "name": "owner",
          "type": "address"
        },
        {
          "indexed": false,
          "internalType": "uint256",
          "name": "amount",
          "type": "uint256"
        },
        {
          "indexed": false,
          "internalType": "string",
          "name": "message",
          "type": "string"
        }
      ],
      "name": "StakingEvent",
      "type": "event"
    },
    {
      "constant": true,
      "inputs": [
        {
          "internalType": "uint256",
          "name": "",
          "type": "uint256"
        }
      ],
      "name": "assets",
      "outputs": [
        {
          "internalType": "bytes32",
          "name": "identity",
          "type": "bytes32"
        },
        {
          "internalType": "address",
          "name": "owner",
          "type": "address"
        },
        {
          "internalType": "string",
          "name": "name",
          "type": "string"
        },
        {
          "internalType": "uint256",
          "name": "value",
          "type": "uint256"
        }
      ],
      "payable": false,
      "stateMutability": "view",
      "type": "function"
    },
    {
      "constant": true,
      "inputs": [
        {
          "internalType": "address",
          "name": "",
          "type": "address"
        }
      ],
      "name": "hasStaked",
      "outputs": [
        {
          "internalType": "bool",
          "name": "",
          "type": "bool"
        }
      ],
      "payable": false,
      "stateMutability": "view",
      "type": "function"
    },
    {
      "constant": true,
      "inputs": [
        {
          "internalType": "address",
          "name": "",
          "type": "address"
        }
      ],
      "name": "isStaking",
      "outputs": [
        {
          "internalType": "bool",
          "name": "",
          "type": "bool"
        }
      ],
      "payable": false,
      "stateMutability": "view",
      "type": "function"
    },
    {
      "constant": true,
      "inputs": [],
      "name": "name",
      "outputs": [
        {
          "internalType": "string",
          "name": "",
          "type": "string"
        }
      ],
      "payable": false,
      "stateMutability": "view",
      "type": "function"
    },
    {
      "constant": true,
      "inputs": [],
      "name": "nativeToken",
      "outputs": [
        {
          "internalType": "contract NativeToken",
          "name": "",
          "type": "address"
        }
      ],
      "payable": false,
      "stateMutability": "view",
      "type": "function"
    },
    {
      "constant": true,
      "inputs": [],
      "name": "rgtToken",
      "outputs": [
        {
          "internalType": "contract RgtToken",
          "name": "",
          "type": "address"
        }
      ],
      "payable": false,
      "stateMutability": "view",
      "type": "function"
    },
    {
      "constant": true,
      "inputs": [
        {
          "internalType": "uint256",
          "name": "",
          "type": "uint256"
        }
      ],
      "name": "stakerAddresses",
      "outputs": [
        {
          "internalType": "address",
          "name": "",
          "type": "address"
        }
      ],
      "payable": false,
      "stateMutability": "view",
      "type": "function"
    },
    {
      "constant": true,
      "inputs": [
        {
          "internalType": "address",
          "name": "",
          "type": "address"
        }
      ],
      "name": "stakersAccount",
      "outputs": [
        {
          "internalType": "uint256",
          "name": "balance",
          "type": "uint256"
        },
        {
          "internalType": "uint256",
          "name": "reward",
          "type": "uint256"
        },
        {
          "internalType": "bool",
          "name": "exists",
          "type": "bool"
        }
      ],
      "payable": false,
      "stateMutability": "view",
      "type": "function"
    },
    {
      "constant": false,
      "inputs": [
        {
          "internalType": "uint256",
          "name": "_amount",
          "type": "uint256"
        }
      ],
      "name": "depositToken",
      "outputs": [],
      "payable": false,
      "stateMutability": "nonpayable",
      "type": "function"
    },
    {
      "constant": false,
      "inputs": [],
      "name": "issueReward",
      "outputs": [],
      "payable": false,
      "stateMutability": "nonpayable",
      "type": "function"
    },
    {
      "constant": false,
      "inputs": [],
      "name": "claimReward",
      "outputs": [],
      "payable": false,
      "stateMutability": "nonpayable",
      "type": "function"
    }
  ],
  "bytecode": "0x60806040526040518060400160405280601981526020017f44617070204469676974616c2042616e6b696e67204661726d0000000000000081525060009080519060200190620000519291906200012a565b503480156200005f57600080fd5b506040516200154438038062001544833981810160405260408110156200008557600080fd5b81019080805190602001909291908051906020019092919050505081600160006101000a81548173ffffffffffffffffffffffffffffffffffffffff021916908373ffffffffffffffffffffffffffffffffffffffff16021790555080600260006101000a81548173ffffffffffffffffffffffffffffffffffffffff021916908373ffffffffffffffffffffffffffffffffffffffff1602179055505050620001d9565b828054600181600116156101000203166002900490600052602060002090601f016020900481019282601f106200016d57805160ff19168380011785556200019e565b828001600101855582156200019e579182015b828111156200019d57825182559160200191906001019062000180565b5b509050620001ad9190620001b1565b5090565b620001d691905b80821115620001d2576000816000905550600101620001b8565b5090565b90565b61135b80620001e96000396000f3fe608060405234801561001057600080fd5b50600436106100a95760003560e01c8063b88a802f11610071578063b88a802f14610273578063c93c8f341461027d578063cf35bdd0146102d9578063e1758bd8146103c1578063f0693d601461040b578063f483f33b14610475576100a9565b806306fdde03146100ae578063459598a2146101315780636215be771461019f5780636f49712b146101cd57806370200ef114610229575b600080fd5b6100b661047f565b6040518080602001828103825283818151815260200191508051906020019080838360005b838110156100f65780820151818401526020810190506100db565b50505050905090810190601f1680156101235780820380516001836020036101000a031916815260200191505b509250505060405180910390f35b61015d6004803603602081101561014757600080fd5b810190808035906020019092919050505061051d565b604051808273ffffffffffffffffffffffffffffffffffffffff1673ffffffffffffffffffffffffffffffffffffffff16815260200191505060405180910390f35b6101cb600480360360208110156101b557600080fd5b8101908080359060200190929190505050610559565b005b61020f600480360360208110156101e357600080fd5b81019080803573ffffffffffffffffffffffffffffffffffffffff169060200190929190505050610b78565b604051808215151515815260200191505060405180910390f35b610231610b98565b604051808273ffffffffffffffffffffffffffffffffffffffff1673ffffffffffffffffffffffffffffffffffffffff16815260200191505060405180910390f35b61027b610bbe565b005b6102bf6004803603602081101561029357600080fd5b81019080803573ffffffffffffffffffffffffffffffffffffffff169060200190929190505050610e93565b604051808215151515815260200191505060405180910390f35b610305600480360360208110156102ef57600080fd5b8101908080359060200190929190505050610eb3565b604051808581526020018473ffffffffffffffffffffffffffffffffffffffff1673ffffffffffffffffffffffffffffffffffffffff16815260200180602001838152602001828103825284818151815260200191508051906020019080838360005b83811015610383578082015181840152602081019050610368565b50505050905090810190601f1680156103b05780820380516001836020036101000a031916815260200191505b509550505050505060405180910390f35b6103c9610fa8565b604051808273ffffffffffffffffffffffffffffffffffffffff1673ffffffffffffffffffffffffffffffffffffffff16815260200191505060405180910390f35b61044d6004803603602081101561042157600080fd5b81019080803573ffffffffffffffffffffffffffffffffffffffff169060200190929190505050610fce565b6040518084815260200183815260200182151515158152602001935050505060405180910390f35b61047d611005565b005b60008054600181600116156101000203166002900480601f0160208091040260200160405190810160405280929190818152602001828054600181600116156101000203166002900480156105155780601f106104ea57610100808354040283529160200191610515565b820191906000526020600020905b8154815290600101906020018083116104f857829003601f168201915b505050505081565b6005818154811061052a57fe5b906000526020600020016000915054906101000a900473ffffffffffffffffffffffffffffffffffffffff1681565b6000600a828161056557fe5b06146105bc576040517f08c379a000000000000000000000000000000000000000000000000000000000815260040180806020018281038252603681526020018061128e6036913960400191505060405180910390fd5b600160009054906101000a900473ffffffffffffffffffffffffffffffffffffffff1673ffffffffffffffffffffffffffffffffffffffff166323b872dd3330846040518463ffffffff1660e01b8152600401808473ffffffffffffffffffffffffffffffffffffffff1673ffffffffffffffffffffffffffffffffffffffff1681526020018373ffffffffffffffffffffffffffffffffffffffff1673ffffffffffffffffffffffffffffffffffffffff1681526020018281526020019350505050602060405180830381600087803b15801561069957600080fd5b505af11580156106ad573d6000803e3d6000fd5b505050506040513d60208110156106c357600080fd5b8101908080519060200190929190505050506106dd611184565b6040518060800160405280424360405160200180838152602001828152602001925050506040516020818303038152906040528051906020012081526020013373ffffffffffffffffffffffffffffffffffffffff1681526020016040518060400160405280600f81526020017f52475420544f4b454e2041535345540000000000000000000000000000000000815250815260200167016345785d8a00008152509050600360003373ffffffffffffffffffffffffffffffffffffffff1673ffffffffffffffffffffffffffffffffffffffff16815260200190815260200160002060020160009054906101000a900460ff161561086f576107de6111c5565b600360003373ffffffffffffffffffffffffffffffffffffffff1673ffffffffffffffffffffffffffffffffffffffff16815260200190815260200160002060405180606001604052908160008201548152602001600182015481526020016002820160009054906101000a900460ff16151515158152505090508281600001818151019150818152505050610977565b6108776111c5565b60405180606001604052808481526020016000815260200160011515815250905080600360003373ffffffffffffffffffffffffffffffffffffffff1673ffffffffffffffffffffffffffffffffffffffff168152602001908152602001600020600082015181600001556020820151816001015560408201518160020160006101000a81548160ff02191690831515021790555090505060053390806001815401808255809150509060018203906000526020600020016000909192909190916101000a81548173ffffffffffffffffffffffffffffffffffffffff021916908373ffffffffffffffffffffffffffffffffffffffff16021790555050505b600781908060018154018082558091505090600182039060005260206000209060040201600090919290919091506000820151816000015560208201518160010160006101000a81548173ffffffffffffffffffffffffffffffffffffffff021916908373ffffffffffffffffffffffffffffffffffffffff1602179055506040820151816002019080519060200190610a129291906111e8565b50606082015181600301555050506001600660003373ffffffffffffffffffffffffffffffffffffffff1673ffffffffffffffffffffffffffffffffffffffff16815260200190815260200160002060006101000a81548160ff0219169083151502179055506001600460003373ffffffffffffffffffffffffffffffffffffffff1673ffffffffffffffffffffffffffffffffffffffff16815260200190815260200160002060006101000a81548160ff0219169083151502179055507f6d62758ab1d67fbaf544c6ad8e7dd0f50be13076eb42bf45f76d57122e1597023383604051808373ffffffffffffffffffffffffffffffffffffffff1673ffffffffffffffffffffffffffffffffffffffff16815260200182815260200180602001828103825260188152602001807f4f7065726174696f6e20776173207375636365737366756c0000000000000000815250602001935050505060405180910390a15050565b60066020528060005260406000206000915054906101000a900460ff1681565b600160009054906101000a900473ffffffffffffffffffffffffffffffffffffffff1681565b610bc66111c5565b600360003373ffffffffffffffffffffffffffffffffffffffff1673ffffffffffffffffffffffffffffffffffffffff16815260200190815260200160002060405180606001604052908160008201548152602001600182015481526020016002820160009054906101000a900460ff161515151581525050905060008160200151905060008111610ca3576040517f08c379a00000000000000000000000000000000000000000000000000000000081526004018080602001828103825260638152602001806112c46063913960800191505060405180910390fd5b600260009054906101000a900473ffffffffffffffffffffffffffffffffffffffff1673ffffffffffffffffffffffffffffffffffffffff1663a9059cbb33836040518363ffffffff1660e01b8152600401808373ffffffffffffffffffffffffffffffffffffffff1673ffffffffffffffffffffffffffffffffffffffff16815260200182815260200192505050602060405180830381600087803b158015610d4c57600080fd5b505af1158015610d60573d6000803e3d6000fd5b505050506040513d6020811015610d7657600080fd5b81019080805190602001909291905050505060008260200181815250506000600660003373ffffffffffffffffffffffffffffffffffffffff1673ffffffffffffffffffffffffffffffffffffffff16815260200190815260200160002060006101000a81548160ff0219169083151502179055507fbcd3d5e3723f1a8a2ad17279450e559d439b353499286ee4064f74d5589a96f93382604051808373ffffffffffffffffffffffffffffffffffffffff1673ffffffffffffffffffffffffffffffffffffffff16815260200182815260200180602001828103825260188152602001807f4f7065726174696f6e20776173207375636365737366756c0000000000000000815250602001935050505060405180910390a15050565b60046020528060005260406000206000915054906101000a900460ff1681565b60078181548110610ec057fe5b90600052602060002090600402016000915090508060000154908060010160009054906101000a900473ffffffffffffffffffffffffffffffffffffffff1690806002018054600181600116156101000203166002900480601f016020809104026020016040519081016040528092919081815260200182805460018160011615610100020316600290048015610f985780601f10610f6d57610100808354040283529160200191610f98565b820191906000526020600020905b815481529060010190602001808311610f7b57829003601f168201915b5050505050908060030154905084565b600260009054906101000a900473ffffffffffffffffffffffffffffffffffffffff1681565b60036020528060005260406000206000915090508060000154908060010154908060020160009054906101000a900460ff16905083565b62015180600854420311611081576040517f08c379a00000000000000000000000000000000000000000000000000000000081526004018080602001828103825260158152602001807f4e65656420746f207761697420323420686f757273000000000000000000000081525060200191505060405180910390fd5b60008090505b60058054905081101561117a576000600582815481106110a357fe5b9060005260206000200160009054906101000a900473ffffffffffffffffffffffffffffffffffffffff1690506110d86111c5565b600360008373ffffffffffffffffffffffffffffffffffffffff1673ffffffffffffffffffffffffffffffffffffffff16815260200190815260200160002060405180606001604052908160008201548152602001600182015481526020016002820160009054906101000a900460ff161515151581525050905067016345785d8a000081602001818151019150818152505050508080600101915050611087565b5042600881905550565b604051806080016040528060008019168152602001600073ffffffffffffffffffffffffffffffffffffffff16815260200160608152602001600081525090565b604051806060016040528060008152602001600081526020016000151581525090565b828054600181600116156101000203166002900490600052602060002090601f016020900481019282601f1061122957805160ff1916838001178555611257565b82800160010185558215611257579182015b8281111561125657825182559160200191906001019061123b565b5b5090506112649190611268565b5090565b61128a91905b8082111561128657600081600090555060010161126e565b5090565b9056fe416d6f756e7420737570706c696564206d7573742062652061206d756c7469706c65206f662031302065672031302c2032302c203330526577617264206d7573742062652067726561746572207468616e207a65726f206265666f72652069742063616e20626520636c61696d65642c20706c73207374616b652052475420746f6b656e20616e6420636865636b206261636b20616761696ea265627a7a7231582082b6e6ac46784f53d6fbc82f9b9f6ad52d681a4d0671b80cae962e4dcbdb3fb664736f6c63430005100032",
  "source": "// SPDX-License-Identifier: GPL-3.0\n\npragma solidity ^0.5.0;\n\n//since we will be using our RGT and Native token in this our banking farm smart contract\n//therefore, we need to import them here\n\nimport \"./RgtToken.sol\";\nimport \"./NativeToken.sol\";\n\n\n// This is like tokenFarm that gives reward for each token staked(deposited) by investor\n// the idea is, an investor will stake a multiple of 10 RGT token.\n// And for each staken, 0.1 RGT token is reward every 24 hours.\ncontract DigitalBankingFarm {\n\n    //the name of the contract. it is best practice to give smart contract a name\n    string public name = \"Dapp Digital Banking Farm\";\n    //create variable of type RGT token\n    RgtToken public rgtToken;\n    //create variable of type Native token\n    NativeToken public nativeToken;\n    //create the variable that will hold the mapping of address to account\n    mapping(address => Account) public stakersAccount;\n    //Since it is certain that the reward for each is staking is 0.1, therefore it will be okay if declared constant\n    uint constant rewardAmount = 100000000000000000; // 0.1 RGT TOKEN\n    //Lets manage the state of staking/depositing in our contract, in that case we will know if the user has staked.\n    mapping(address => bool) public hasStaked;\n    //Lets keep track of all the addresses that ever staked in our contract.\n    address[] public stakerAddresses;\n    //lets add current staking status;\n    mapping(address => bool) public isStaking;\n    //keep track all track assets we ever created in this account\n    Asset[] public assets;\n    //track the last running time\n    uint lastRun;\n\n\n    //EVENT\n    event StakingEvent(address owner, uint amount, string message);\n    event ClaimRewardEvent(address owner, uint reward, string message);\n\n\n    //The object that hold the account of each stakers\n    struct Account {\n        //holding total balance of the amount the account has staked or deposited so far\n        uint balance;\n        //hold the balance of the reward so far base on the amount he has staked\n        uint reward;\n        //great to have this, in order to check its existence\n        bool exists;\n    }\n\n\n    //The asset object that will be created upon successfully deposited of multiple of 10 RGT token\n    struct Asset {\n        //an asset should have unique identity, in this case, a unique identifiers can assigned to this\n        bytes32 identity;\n        //of course an asset should have owner, in this case, we will use address of the owner\n        address owner;\n        //and asset will have a name, we will just called RGTAsset\n        string name;\n        //how much does this asset worth\n        uint value;\n    }\n\n\n\n\n    //create our contruction that run once whenever the smart contract is deployed to the network\n    //the contructor takes  the argument of the address that deployed the RGT and Native token to the network\n    constructor(RgtToken _rgtToken, NativeToken _nativeToken) public {\n        rgtToken = _rgtToken;\n        nativeToken = _nativeToken;\n    }\n\n    //1. Stake token: this is part where investor we deposit RGT token to our digital banking contract\n    //takes amount of RGT token as an argument and it has to be multiple of 10\n    function depositToken(uint _amount) public {\n\n        //before anything, lets check if the amount supplied is a multiple of 10 RGT token\n        require(_amount % 10 == 0, \"Amount supplied must be a multiple of 10 eg 10, 20, 30\");\n\n        // to stake RGT token to our contract, first we will transfer whatever the amount the sender is sending\n        // to this contract\n        // ofcourse in a real world scenerios, token sent to the app can be used for lending, fund raising, project building etc\n        // as reward for each multiple of 10 token RGT stoken, an asset will be generated.\n        // asset is something of value such as diamond, gold, but in this case asset === 0.1 RGT token\n        rgtToken.transferFrom(msg.sender, address(this), _amount);\n\n        //now the token has been successfully transfer to the contract, lets create an asset for this transactions\n        Asset memory asset = Asset({\n            //for instance we will hash the timestamp and block number to make identity of this asset unique\n            identity: keccak256(abi.encodePacked(block.timestamp, block.number)),\n            name: \"RGT TOKEN ASSET\",\n            owner: msg.sender,  //the sender is the owner of this asset\n            value: rewardAmount\n        });\n\n\n        //check if this sender has an account with us\n        if(stakersAccount[msg.sender].exists) {\n            //update the account of this sender\n            Account memory account = stakersAccount[msg.sender];\n            //Great! this sender has account with us, lets update its balance\n            //update the existing balance\n            account.balance += _amount;\n\n        }else {\n            //it means this is our first time account owner, lets add him up the list of our account owners\n            //open account for him\n            Account memory newAccount = Account({\n            balance: _amount,\n            reward: 0,\n            exists: true\n            });\n            //finally add him up to the list of existing stakers\n            stakersAccount[msg.sender] = newAccount;\n            //so since this is new account --- first timer stakers, lets also add him to the array of stakers\n            stakerAddresses.push(msg.sender);\n        }\n        //update the asset array;\n        assets.push(asset);\n        //update current staking status\n        isStaking[msg.sender] = true;\n        //update staking status\n        hasStaked[msg.sender] = true;\n\n        //if every things went well as it should, then emit staking event\n        emit StakingEvent(msg.sender, _amount, \"Operation was successful\");\n\n    }\n\n\n    //2. Issuing token as a reward : part where 0.1 native token will be issuing for all our investor asset in the\n    // in the contract since the our digital banking now have 10,000 of native token to be issued out\n    //this function will be called by off-chain server every 24 hours...\n    //NOTE: there is not native delay, sleep or anything like that in solidity or EVM bytcode in general\n    //becuase of this, we will call the function from off-chain every 24hrs and validate it in solidity like this\n    function issueReward() public {\n        //first lets validate that is actually being the 24 hours since this operation was ran\n       require(block.timestamp - lastRun > 24 hours, 'Need to wait 24 hours');\n        //run this only if the last run has been over 24 hours\n        for(uint i = 0; i < stakerAddresses.length; i++) {\n            address  recipient = stakerAddresses[i];\n            Account memory account = stakersAccount[recipient];\n            //keep track of the reward received since the user has been staking/depositing\n            account.reward += rewardAmount;\n        }\n        //update the last run\n        lastRun = block.timestamp;\n    }\n\n\n    //3. Claim your reward: the method that will be responsible for investor to claim the reward that he received\n    // so far base on the asset he/she has with us.\n    function claimReward() public {\n\n        //fetch the account detail of the sender\n        Account memory account  = stakersAccount[msg.sender];\n\n        //get the total reward\n        uint reward = account.reward;\n\n        //check if the reward is greater than zero\n        require(reward > 0, \"Reward must be greater than zero before it can be claimed, pls stake RGT token and check back again\");\n\n        //transfer native token to this sender\n        nativeToken.transfer(msg.sender, reward);\n\n        //reset the reward balance\n        account.reward = 0;\n\n        //the account is not more staking\n        isStaking[msg.sender] = false;\n\n        //emit claimReward event\n        emit ClaimRewardEvent(msg.sender, reward, \"Operation was successful\");\n\n\n    }\n\n\n\n\n}",
  "sourcePath": "/Users/jamesoladimeji/Desktop/digital-bankking-contract/src/contracts/DigitalBankingFarm.sol",
  "compiler": {
    "name": "solc",
    "version": "0.5.16+commit.9c3226ce.Emscripten.clang"
  },
  "schemaVersion": "3.2.3",
  "updatedAt": "2022-03-06T04:02:14.449Z",
  "networkType": "ethereum",
  "devdoc": {
    "methods": {}
  },
  "userdoc": {
    "methods": {}
  }
}