{
  "contractName": "DigitalBankingFarm",
  "abi": [
    {
      "inputs": [
        {
          "internalType": "contract RgtToken",
          "name": "_rgtToken",
          "type": "address"
        },
        {
          "internalType": "contract NativeToken",
          "name": "_nativeToken",
          "type": "address"
        }
      ],
      "payable": false,
      "stateMutability": "nonpayable",
      "type": "constructor"
    },
    {
      "constant": true,
      "inputs": [],
      "name": "name",
      "outputs": [
        {
          "internalType": "string",
          "name": "",
          "type": "string"
        }
      ],
      "payable": false,
      "stateMutability": "view",
      "type": "function"
    },
    {
      "constant": true,
      "inputs": [],
      "name": "nativeToken",
      "outputs": [
        {
          "internalType": "contract NativeToken",
          "name": "",
          "type": "address"
        }
      ],
      "payable": false,
      "stateMutability": "view",
      "type": "function"
    },
    {
      "constant": true,
      "inputs": [],
      "name": "rgtToken",
      "outputs": [
        {
          "internalType": "contract RgtToken",
          "name": "",
          "type": "address"
        }
      ],
      "payable": false,
      "stateMutability": "view",
      "type": "function"
    }
  ],
  "bytecode": "0x60806040526040518060400160405280601981526020017f44617070204469676974616c2042616e6b696e67204661726d000000000000008152506000908051906020019061004f929190610123565b5034801561005c57600080fd5b506040516104533803806104538339818101604052604081101561007f57600080fd5b81019080805190602001909291908051906020019092919050505081600160006101000a81548173ffffffffffffffffffffffffffffffffffffffff021916908373ffffffffffffffffffffffffffffffffffffffff16021790555080600260006101000a81548173ffffffffffffffffffffffffffffffffffffffff021916908373ffffffffffffffffffffffffffffffffffffffff16021790555050506101c8565b828054600181600116156101000203166002900490600052602060002090601f016020900481019282601f1061016457805160ff1916838001178555610192565b82800160010185558215610192579182015b82811115610191578251825591602001919060010190610176565b5b50905061019f91906101a3565b5090565b6101c591905b808211156101c15760008160009055506001016101a9565b5090565b90565b61027c806101d76000396000f3fe608060405234801561001057600080fd5b50600436106100415760003560e01c806306fdde031461004657806370200ef1146100c9578063e1758bd814610113575b600080fd5b61004e61015d565b6040518080602001828103825283818151815260200191508051906020019080838360005b8381101561008e578082015181840152602081019050610073565b50505050905090810190601f1680156100bb5780820380516001836020036101000a031916815260200191505b509250505060405180910390f35b6100d16101fb565b604051808273ffffffffffffffffffffffffffffffffffffffff1673ffffffffffffffffffffffffffffffffffffffff16815260200191505060405180910390f35b61011b610221565b604051808273ffffffffffffffffffffffffffffffffffffffff1673ffffffffffffffffffffffffffffffffffffffff16815260200191505060405180910390f35b60008054600181600116156101000203166002900480601f0160208091040260200160405190810160405280929190818152602001828054600181600116156101000203166002900480156101f35780601f106101c8576101008083540402835291602001916101f3565b820191906000526020600020905b8154815290600101906020018083116101d657829003601f168201915b505050505081565b600160009054906101000a900473ffffffffffffffffffffffffffffffffffffffff1681565b600260009054906101000a900473ffffffffffffffffffffffffffffffffffffffff168156fea265627a7a72315820a5a76100804695640591adcd620f3b2d9527f471689d877b6217e8cecc2d19f064736f6c63430005100032",
  "source": "// SPDX-License-Identifier: GPL-3.0\n\npragma solidity ^0.5.0;\n\n//since we will be using our RGT and Native token in this our banking farm smart contract\n//therefore, we need to import them here\n\nimport \"./RgtToken.sol\";\nimport \"./NativeToken.sol\";\n\n\n// This is like tokenFarm that gives reward for each token staked(deposited) by investor\n// the idea is, an investor will stake a multiple of 10 RGT token.\n// And for each staken, 0.1 RGT token is reward every 24 hours.\ncontract DigitalBankingFarm {\n\n    //the name of the contract. it is best practice to give smart contract a name\n    string public name = \"Dapp Digital Banking Farm\";\n\n    //create variable of type RGT token\n    RgtToken public rgtToken;\n    //create variable of type Native token\n    NativeToken public nativeToken;\n\n\n    //create our contruction that run once whenever the smart contract is deployed to the network\n    //the contructor takes  the argument of the address that deployed the RGT and Native token to the network\n    constructor(RgtToken _rgtToken, NativeToken _nativeToken) public {\n        rgtToken = _rgtToken;\n        nativeToken = _nativeToken;\n    }\n\n}",
  "sourcePath": "/Users/jamesoladimeji/Desktop/digital-bankking-contract/src/contracts/DigitalBankingFarm.sol",
  "compiler": {
    "name": "solc",
    "version": "0.5.16+commit.9c3226ce.Emscripten.clang"
  },
  "schemaVersion": "3.2.3",
  "updatedAt": "2022-03-05T00:26:39.220Z",
  "networkType": "ethereum",
  "devdoc": {
    "methods": {}
  },
  "userdoc": {
    "methods": {}
  }
}